:100000000C942A000C9447000C9447000C94470071
:100010000C9447000C9447000C9447000C94470044
:100020000C9447000C9447000C9447000C94470034
:100030000C9447000C9447000C9447000C94470024
:100040000C9447000C9447000C9447000C94470014
:100050000C94470011241FBECFE5D8E0DEBFCDBF12
:1000600010E0A0E6B0E0EEE5FEE002C005900D92E3
:10007000AE3AB107D9F720E0AEEAB0E001C01D9278
:10008000AF3FB207E1F70E94B7060C942D070C941E
:100090000000CF92DF92EF92FF92282F30E0A9016B
:1000A0004E5F5F4F440F551F440F551FFA01E05537
:1000B000FF4FC080D180E280F3809DE3C916D10458
:1000C000E104F10449F0FA01E855FF4FC082D18202
:1000D000E282F3828F5FE1CF220F331F220F331FA3
:1000E000F901E055FF4FC082D182E282F382FF9096
:1000F000EF90DF90CF90089594E0699FF001112474
:10010000E055FF4F2083318342835383E1E0E60FC4
:1001100094E0E99FF0011124E055FF4F90E0A0E04A
:10012000B0E080839183A283B38382E0860F089539
:100130000E948C0661E081E00C947406CF92DF92FD
:10014000EF92FF920F931F93CF93DF930E94AC0423
:100150008093FE00843709F471C280538A3090F591
:100160008091FD00811109C00E94820661E081E05A
:100170000E94740681E08093FD00E091FE002091D2
:10018000F9003091FA004091FB005091FC00AAE088
:10019000B0E00E94F106DC01CB018E0F911DA11D84
:1001A000B11DC097A109B1098093F9009093FA009D
:1001B000A093FB00B093FC008E2F0E94D2058AEA28
:1001C000809360008091FE008D3209F4ADC030F460
:1001D0008A3271F08B3209F476C030C28D3309F463
:1001E000E5C0833609F4F5C18F3209F027C231C06A
:1001F000809160008535E9F4C090F500D090F6005C
:10020000E090F700F090F8000E94820661E081E043
:100210000E947406C701B6010E94D405C092F9007D
:10022000D092FA00E092FB00F092FC0081E0809313
:10023000FD008091FE000E94D2052091F9003091CE
:10024000FA004091FB005091FC006091F4008AE2BA
:1002500030C0809160008535E9F4C090F500D09001
:10026000F600E090F700F090F8000E94820661E04E
:1002700081E00E947406C701B6010E94D405C092B5
:10028000F900D092FA00E092FB00F092FC0081E0CD
:100290008093FD008091FE000E94D2052091F9001C
:1002A0003091FA004091FB005091FC006091F40005
:1002B0008FE20E947C008093F4008091AF008F5FFA
:1002C0008093AF006AC0809160008535E9F4C090EA
:1002D000F500D090F600E090F700F090F8000E9452
:1002E000820661E081E00E947406C701B6010E94A7
:1002F000D405C092F900D092FA00E092FB00F0928F
:10030000FC0081E08093FD008091FE000E94D205F8
:100310002091F9003091FA004091FB005091FC00CF
:100320006091F4008BE230C0809160008535E9F483
:10033000C090F500D090F600E090F700F090F80043
:100340000E94820661E081E00E947406C701B60146
:100350000E94D405C092F900D092FA00E092FB000E
:10036000F092FC0081E08093FD008091FE000E94ED
:10037000D2052091F9003091FA004091FB00509194
:10038000FC006091F4008DE20E947C008093F400F8
:100390008091AE008F5F8093AE001092F9001092B2
:1003A000FA001092FB001092FC0048C12091F90065
:1003B0003091FA004091FB005091FC006091F400F4
:1003C0008DE30E947C00082F8093F4001092F900C6
:1003D0001092FA001092FB001092FC00D091AE0037
:1003E0001091AF00C0E0F4E0CF02C0011124FC0185
:1003F000E055FF4F40815181628173814D3351053A
:100400006105710509F43FC01123E9F14A32510534
:1004100061057105A9F4FC01E455FF4FDC01AC5402
:10042000BF4F20813181428153816D917D918D91AA
:100430009C910E94C20660837183828393831CC057
:100440004F32510561057105E1F49C0124553F4F80
:100450007901FC01EC54FF4FD9016D917D918D9193
:100460009C9120813181428153810E94D206F70103
:1004700020833183428353838C2F0E944900115083
:10048000C150CF5FB0CFC0E024E0C202C001112450
:10049000FC01E055FF4F40815181628173814D33F2
:1004A00051056105710509F443C0DD2309F440C01D
:1004B0004B32510561057105A1F4FC01E455FF4F74
:1004C000DC01AC54BF4F40815181628173818D91B9
:1004D0009D910D90BC91A02D840F951FA61FB71F55
:1004E0001CC04D3251056105710501F5FC01E45553
:1004F000FF4FDC01AC54BF4F408151816281738159
:100500008D919D910D90BC91A02D6A017B01C81A1F
:10051000D90AEA0AFB0AD701C60180839183A28324
:10052000B3838C2F0E944900D150C150CF5FACCF14
:10053000C090B000D090B100E090B200F090B30055
:1005400040E0802F90E0242F042E000C330B28175E
:1005500039076CF4220F331F220F331FF901E055C6
:10056000FF4F10821182128213824F5FECCFC09234
:10057000F500D092F600E092F700F092F80061E00A
:1005800082E00E9474066091F5007091F6008091FF
:10059000F7009091F8000E94D4058091F400882320
:1005A00061F034E0839FF0011124E055FF4F108289
:1005B0001182128213828150F2CF1092F4001092B5
:1005C000AE001092AF001092FD0085E580936000B0
:1005D00035C00E9482061092AE001092AF001092B9
:1005E000FD008AEA809360001092F5001092F600F8
:1005F0001092F7001092F8001092F9001092FA0091
:100600001092FB001092FC002091F40030E040E0DA
:10061000842F042E000C990B821793076CF4880F1B
:10062000991F880F991FFC01E055FF4F108211821E
:10063000128213824F5FECCF1092F400DF91CF91C2
:100640001F910F91FF90EF90DF90CF900895E1E719
:10065000F0E040E081E090E05191342F36953695FE
:100660003695242F2770513009F443C020F05230C2
:1006700009F482C0C5C0323001F1333061F131304C
:1006800071F05AB3BC0102C0660F771F2A95E2F7DA
:100690009B01352F322B3ABB3BB320953DC057B35E
:1006A000BC0102C0660F771F2A95E2F79B01352F28
:1006B000322B37BB38B320953EC054B3BC0102C0C7
:1006C000660F771F2A95E2F79B01352F322B34BB3B
:1006D00035B320953FC051B3BC0102C0660F771FF0
:1006E0002A95E2F79B01352F322B31BB32B320958F
:1006F00041C0323011F1333081F1313079F05AB3E9
:10070000BC0102C0660F771F2A95E2F79B01209576
:10071000352F32233ABB3BB3232342C057B3BC012E
:1007200002C0660F771F2A95E2F79B012095352FAF
:10073000322337BB38B3232343C054B3BC0102C0B8
:10074000660F771F2A95E2F79B012095352F3223FC
:1007500034BB35B3232325BB53C051B3BC0102C006
:10076000660F771F2A95E2F79B012095352F3223DC
:1007700031BB32B3232343C0323021F1333089F10E
:10078000313081F05AB3BC0102C0660F771F2A9541
:10079000E2F79B01362F309535233ABB3BB3232B31
:1007A0002BBB2EC057B3BC0102C0660F771F2A9522
:1007B000E2F79B01362F3095352337BB38B3232B17
:1007C00028BB1EC054B3BC0102C0660F771F2A9518
:1007D000E2F79B01362F3095352334BB35B3232BFD
:1007E000BACF51B3BC0102C0660F771F2A95E2F75A
:1007F0009B01362F3095352331BB32B3232B22BBDF
:100800004F5F403209F028CF0895982F969596951E
:10081000969587706130C1F5913091F028F0923053
:10082000D9F0933029F108954BB321E030E0B901BC
:1008300002C0660F771F8A95E2F7CB01842B38C080
:1008400048B321E030E0B90102C0660F771F8A95F6
:10085000E2F7CB01842B3AC045B321E030E0B90187
:1008600002C0660F771F8A95E2F7CB01842B3CC04C
:1008700042B321E030E0B90102C0660F771F8A95CC
:10088000E2F7CB01842B3EC09130A1F028F09230EA
:10089000F9F0933059F108954BB321E030E0B901FC
:1008A00002C0660F771F8A95E2F7CB0180958423FB
:1008B0008BBB089548B321E030E0B90102C0660F58
:1008C000771F8A95E2F7CB018095842388BB089532
:1008D00045B321E030E0B90102C0660F771F8A9569
:1008E000E2F7CB018095842385BB089542B321E0D4
:1008F00030E0B90102C0660F771F8A95E2F7CB019D
:100900008095842382BB0895282F2770869586952D
:100910008695813049F030F0823041F0833079F4AF
:1009200080B305C089B303C086B301C083B390E030
:1009300002C0959587952A95E2F78170089580E029
:100940000895CF93CCE061E08C2F0E940504CF5F27
:10095000C031C9F7CF910895DF92EF92FF920F93C4
:100960001F93CF93DF9391E6E92E90E0F92ECCE030
:10097000D4E760E08C2F0E94050400E010E08AE1DB
:10098000D82ED00E8D2D0E948404811115C0F70140
:10099000E00FF11FD0818FE19EE40197F1F700C0D5
:1009A00000008D2D0E9484048823D9F38FE19EE4FA
:1009B0000197F1F700C000000F5F1F4F04301105D1
:1009C000F1F661E08C2F0E940504CF5F94E0E90E00
:1009D000F11CC03171F68D2FDF91CF911F910F91D6
:1009E000FF90EF90DF900895CF93C82F60E081E0F3
:1009F0000E9405046C2F661F6627661F86E00E9412
:100A00000504C6FB662760F985E00E940504C5FB66
:100A1000662760F984E00E940504C4FB662760F93C
:100A200083E00E94050461E082E00E9405048FECEF
:100A300097E00197F1F700C0000060E082E00E94BB
:100A400005048FEC97E00197F1F700C00000C3FBAD
:100A5000662760F986E00E940504C2FB662760F9FC
:100A600085E00E940504C1FB662760F984E00E94CE
:100A700005046C2F617083E00E94050461E082E050
:100A80000E9405048FEC97E00197F1F700C0000089
:100A900060E082E00E9405048FEC97E00197F1F797
:100AA00000C00000CF910895CF93C82F61E081E08E
:100AB0000E9405046C2F661F6627661F86E00E9451
:100AC0000504C6FB662760F985E00E940504C5FBA6
:100AD000662760F984E00E940504C4FB662760F97C
:100AE00083E00E94050461E082E00E9405048FEC2F
:100AF00097E00197F1F700C0000060E082E00E94FB
:100B000005048FEC97E00197F1F700C00000C3FBEC
:100B1000662760F986E00E940504C2FB662760F93B
:100B200085E00E940504C1FB662760F984E00E940D
:100B300005046C2F617083E00E94050461E082E08F
:100B40000E9405048FEC97E00197F1F700C00000C8
:100B500060E082E00E9405048FEC97E00197F1F7D6
:100B600000C00000CF9108952FE788E391E0215065
:100B700080409040E1F700C0000082E00E94F40451
:100B800088E20E94F4048CE00E94F40481E00E9458
:100B9000F4048FEC97E00197F1F700C0000086E0C5
:100BA0000C94F4040C9454054F925F926F927F92D0
:100BB000AF92BF92CF92DF92EF92FF921F93CF93AB
:100BC000DF93CDB7DEB72A970FB6F894DEBF0FBE1E
:100BD000CDBF6B017C016115710581059105B1F4F3
:100BE00080E32A960FB6F894DEBF0FBECDBFDF912B
:100BF000CF911F91FF90EF90DF90CF90BF90AF907B
:100C00007F906F905F904F900C94540597FF0BC0AE
:100C1000F094E094D094C094C11CD11CE11CF11C50
:100C20008DE20E94540510E09AE0492E512C612C6F
:100C3000712CAA24A394B12CAC0EBD1EA10EB11C24
:100C4000C701B601A30192010E94D206605DF501C1
:100C5000608381E0810F69017A01C114D104E1044C
:100C6000F10411F0182FE5CFF12EF7FC0DC0E1E0F3
:100C7000F0E0EC0FFD1FEF0DF11DF7FCFA95808100
:100C80000E945405FA94F1CF2A960FB6F894DEBF6D
:100C90000FBECDBFDF91CF911F91FF90EF90DF90FE
:100CA000CF90BF90AF907F906F905F904F900895DE
:100CB0000F931F93CF938C01C0E0F801EC0FF11D4F
:100CC0008081882369F00E9454052FEF89EF90E01E
:100CD000215080409040E1F700C00000CF5FEDCF91
:100CE000CF911F910F910895813021F48FEF860FDE
:100CF000806805C0823029F48FEF860F806C0C94D9
:100D0000F404089581E00E94F4048FEC97E00197C9
:100D1000F1F700C00000089583E80E94F40481E91F
:100D200090E00E94580683EC0E94F4048CE990E065
:100D30000E9458062FEF89E698E1215080409040AC
:100D4000E1F700C000000E94820685E80E94F404DA
:100D500087EA90E00E9458062FEF84E39CE0215040
:100D600080409040E1F700C000000C9482060E9491
:100D700027030E94B4050E9498000E94A1040E94CB
:100D80009E00FDCFDB018F939F930E94F106BF91E0
:100D9000AF91A29F800D911DA39F900DB29F900DCA
:100DA00011240895052E97FB1EF400940E94E90675
:100DB00057FD07D00E94FC0607FC03D04EF40C94AC
:100DC000E90650954095309521953F4F4F4F5F4F25
:100DD000089590958095709561957F4F8F4F9F4FA7
:100DE00008950E941E07A59F900DB49F900DA49F8B
:100DF000800D911D11240895A1E21A2EAA1BBB1B80
:100E0000FD010DC0AA1FBB1FEE1FFF1FA217B307D6
:100E1000E407F50720F0A21BB30BE40BF50B661FEC
:100E2000771F881F991F1A9469F7609570958095B0
:100E300090959B01AC01BD01CF010895A29FB00127
:100E4000B39FC001A39F700D811D1124911DB29FFE
:0E0E5000700D811D1124911D0895F894FFCF9F
:100E5E00AA3738392F3435362A3132332D63303DA7
:100E6E002B00000000000000000000000000000049
:100E7E00000000000000000000000002020202005C
:100E8E000057454C434F4D4520544F0043414C4372
:0E0E9E00554C41544F520053544152540000E1
:00000001FF
