S01A000043616C63756C61746F725F70726F6A6563742E73726563AA
S11300000C942A000C943F000C943F000C943F0085
S11300100C943F000C943F000C943F000C943F0060
S11300200C943F000C943F000C943F000C943F0050
S11300300C943F000C943F000C943F000C943F0040
S11300400C943F000C943F000C943F000C943F0030
S11300500C943F0011241FBECFE5D8E0DEBFCDBF16
S113006010E0A0E6B0E0E4E1F8E002C005900D92F3
S1130070AC39B107D9F70E94A1030C9408040C947D
S11300800000982F9695969596958770613009F49F
S113009055C020F0623009F4A1C008959130C1F038
S11300A028F0923039F19330B9F108954AB321E040
S11300B030E0B90102C0660F771F8A95E2F7CB01E1
S11300C0942F982B9ABB9BB3809589238BBB08955F
S11300D047B321E030E0B90102C0660F771F8A956B
S11300E0E2F7CB01942F982B97BB98B38095892383
S11300F088BB089544B321E030E0B90102C0660F23
S1130100771F8A95E2F7CB01942F982B94BB95B374
S11301108095892385BB089541B321E030E0B9017E
S113012002C0660F771F8A95E2F7CB01942F982BB4
S113013091BB92B38095892382BB08959130C1F01D
S113014028F0923039F19330B9F108954AB321E09F
S113015030E0B90102C0660F771F8A95E2F7CB0140
S11301608095942F98239ABB9BB389238BBB0895C6
S113017047B321E030E0B90102C0660F771F8A95CA
S1130180E2F7CB018095942F982397BB98B38923EA
S113019088BB089544B321E030E0B90102C0660F82
S11301A0771F8A95E2F7CB018095942F982394BB0F
S11301B095B3892385BB089541B321E030E0B901AB
S11301C002C0660F771F8A95E2F7CB018095942FC2
S11301D0982391BB92B3892382BB08959130C1F0D7
S11301E028F0923039F19330B9F108954AB321E0FF
S11301F030E0B90102C0660F771F8A95E2F7CB01A0
S1130200962F909594239ABB9BB3892B8BBB08950F
S113021047B321E030E0B90102C0660F771F8A9529
S1130220E2F7CB01962F9095942397BB98B3892B33
S113023088BB089544B321E030E0B90102C0660FE1
S1130240771F8A95E2F7CB01962F9095942394BB60
S113025095B3892B85BB089541B321E030E0B90102
S113026002C0660F771F8A95E2F7CB01962F90950F
S1130270942391BB92B3892B82BB0895CF93C0E0A2
S113028009C0EC2FF0E0E059FF4F60818C2F0E94F1
S11302904100CF5FC032A8F3CF910895982F96956F
S11302A09695969587706130E1F5913099F028F034
S11302B09230E9F0933041F108954BB321E030E0FE
S11302C0B90102C0660F771F8A95E2F7CB01842B30
S11302D08BBB089548B321E030E0B90102C0660F3A
S11302E0771F8A95E2F7CB01842B88BB089545B329
S11302F021E030E0B90102C0660F771F8A95E2F76A
S1130300CB01842B85BB089542B321E030E0B901D1
S113031002C0660F771F8A95E2F7CB01842B82BB5C
S113032008959130A1F028F09230F9F0933059F10A
S113033008954BB321E030E0B90102C0660F771F86
S11303408A95E2F7CB01809584238BBB089548B34B
S113035021E030E0B90102C0660F771F8A95E2F709
S1130360CB018095842388BB089545B321E030E018
S1130370B90102C0660F771F8A95E2F7CB01809519
S1130380842385BB089542B321E030E0B90102C063
S1130390660F771F8A95E2F7CB018095842382BB91
S11303A00895982F969596959695482F4770913075
S11303B081F028F09230B9F09330F9F028C099B365
S11303C0892F90E002C0959587954A95E2F7817050
S11303D0089526B330E0C90102C0959587954A95E2
S11303E0E2F78170089523B330E0C90102C0959506
S11303F087954A95E2F78170089520B330E0C901EA
S113040002C0959587954A95E2F78170089580E03A
S11304100895CF93C0E006C061E08CE08C0F0E9489
S11304204E01CF5FC430C0F3CF910895FF920F9374
S11304301F93CF93DF930F2EF4E7FF2EF02D10E0E0
S113044033C00CE0010F60E0802F0E944E01D0E029
S113045024C0CAE1CD0F8C2F0E94D10181111CC090
S1130460E12FF0E0EE0FFF1FEE0FFF1FE05AFF4FEA
S1130470ED0FF11DF0808FE19EE40197F1F700C0CC
S113048000008C2F0E94D1018823D9F38FE19EE4D0
S11304900197F1F700C00000DF5FD430D0F261E0D3
S11304A0802F0E944E011F5F143058F28F2DDF9170
S11304B0CF911F910F91FF900895CF93C82F60E0C3
S11304C081E00E944E016C2F661F6627661F86E03E
S11304D00E944E01C6FB662760F985E00E944E012A
S11304E0C5FB662760F984E00E944E01C4FB6627C1
S11304F060F983E00E944E0161E082E00E944E01B7
S11305008FEC97E00197F1F700C0000060E082E013
S11305100E944E018FEC97E00197F1F700C00000B4
S1130520C3FB662760F986E00E944E01C2FB662782
S113053060F985E00E944E01C1FB662760F984E002
S11305400E944E016C2F617083E00E944E0161E0B5
S113055082E00E944E018FEC97E00197F1F700C012
S1130560000060E082E00E944E018FEC97E001976A
S1130570F1F700C00000CF910895CF93C82F61E038
S113058081E00E944E016C2F661F6627661F86E07D
S11305900E944E01C6FB662760F985E00E944E0169
S11305A0C5FB662760F984E00E944E01C4FB662700
S11305B060F983E00E944E0161E082E00E944E01F6
S11305C08FEC97E00197F1F700C0000060E082E053
S11305D00E944E018FEC97E00197F1F700C00000F4
S11305E0C3FB662760F986E00E944E01C2FB6627C2
S11305F060F985E00E944E01C1FB662760F984E042
S11306000E944E016C2F617083E00E944E0161E0F4
S113061082E00E944E018FEC97E00197F1F700C051
S1130620000060E082E00E944E018FEC97E00197A9
S1130630F1F700C00000CF9108952FE788E391E01F
S1130640215080409040E1F700C0000082E00E9409
S11306505D0288E20E945D028CE00E945D0281E0FE
S11306600E945D028FEC97E00197F1F700C0000053
S113067086E00E945D0208950E94BD0208950F93D2
S11306801F93CF938C01C0E003C00E94BD02CF5FD3
S1130690F801EC0FF11D80818111F7CFCF911F91EB
S11306A00F910895813031F48FEF860F80680E9496
S11306B05D020895823029F48FEF860F806C0E94CA
S11306C05D02089581E00E945D028FEC97E001973E
S11306D0F1F700C000000895CF93DF93D82FC7E04F
S11306E00DC08D2F90E00C2E02C0959587950A942D
S11306F0E2F78170805D0E943C03C150CC238CF7EB
S1130700DF91CF910895CF93982F92959F70C82F22
S1130710CF709A3028F480E3890F0E943C0304C010
S113072087E3890F0E943C03CA3028F480E38C0FCE
S11307300E943C0304C087E38C0F0E943C03CF91CA
S113074008950E943E010E941D030E94090261E077
S113075081E00E945203D0E0C12CD12C76010E948A
S11307601602C82F8437D9F380ED8C0F8A3090F5A8
S1130770D1110DC061E081E00E94520380E990E054
S11307800E943F0361E081E00E945203D1E0D7015F
S1130790C601880F991FAA1FBB1FAC01BD01440FDE
S11307A0551F661F771F440F551F661F771F840F41
S11307B0951FA61FB71F8C0F911DA11DB11D6C01A4
S11307C07D0120E3C21AD108E108F1088C2F0E94B0
S11307D03C03C5CFCD3399F461E082E00E9452031B
S11307E08C2D0E946C036BE082E00E9452038C2DDE
S11307F00E948303D0E0C12CD12C7601B0CFC33644
S113080009F0ADCF0E946203C12CD12C7601A7CF91
S1070810F894FFCF86
S11308143738392F3435362A3132332D63303D2B72
S113082400000000000000000000000002020202B8
S113083400000000000000000000020000000000AE
S10F084420202020202020202020000064
S9030000FC
